:100000000C942D000C94C6010C9419030C94190344
:100010000C9419030C9419030C9419030C941903F0
:100020000C9419030C9419030C9419030C941902E1
:100030000C9419030C9419030C9419030C941903D0
:100040000C9419030C9419030C9419030C941903C0
:100050000C94190300600065800011241FBECFE5D9
:10006000D8E0DEBFCDBFE4E5F0E040E017C0B591D9
:10007000A59135912591059107FD0CC0959185912C
:10008000EF01F92FE82F05900D92A217B307D9F7CA
:10009000FE0104C01D92A217B307E1F7E935F4078A
:0E00A00031F70E94F9020C94C802F894FFCFC9
:1000AE0080916400811118C060E081E40E94060313
:1000BE0062E082E40E9406030E94F40280916400D2
:1000CE0090E0019683709078992324F401978C6FB9
:1000DE009F6F019680936400809164008130C1F41B
:1000EE000E94F40261E081E40E940A0361E082E46E
:1000FE000E940A038091640090E0019683709078CC
:10010E00992324F401978C6F9F6F0196809364005E
:10011E0080916400823021F580916300882341F044
:10012E0060E082E40E94060362E082E40E940A0319
:10013E0060E081E40E940A0362E081E40E9406030B
:10014E000E94F4028091640090E001968370907892
:10015E00992324F401978C6F9F6F0196809364000E
:10016E000E94F40260E082E40E940A0361E081E4EE
:10017E000E940A0361E082E40E940A0380916400F7
:10018E00833041F41092640062E081E40E940A031D
:06019E00109263000895B9
:1001A400823431F118F4813439F008958334E1F163
:1001B400843409F454C0089541110CC02AB381E079
:1001C40090E002C0880F991F6A95E2F78095822318
:1001D4008ABB0895413009F05CC02AB381E090E005
:1001E40002C0880F991F6A95E2F7822B8ABB089593
:1001F40041110CC027B381E090E002C0880F991F21
:100204006A95E2F78095822387BB0895413009F00F
:1002140040C027B381E090E002C0880F991F6A951F
:10022400E2F7822B87BB089541110CC024B381E00F
:1002340090E002C0880F991F6A95E2F780958223A7
:1002440084BB0895413029F524B381E090E002C0D5
:10025400880F991F6A95E2F7822B84BB0895411198
:100264000CC022B781E090E002C0880F991F6A9504
:10027400E2F78095822382BF0895413051F422B77A
:1002840081E090E002C0880F991F6A95E2F7822B03
:0402940082BF089588
:10029800823431F118F4813439F008958334E1F16E
:1002A800843409F454C0089541110CC02BB381E083
:1002B80090E002C0880F991F6A95E2F78095822323
:1002C8008BBB0895413009F05CC02BB381E090E00E
:1002D80002C0880F991F6A95E2F7822B8BBB08959D
:1002E80041110CC028B381E090E002C0880F991F2B
:1002F8006A95E2F78095822388BB0895413009F01A
:1003080040C028B381E090E002C0880F991F6A9529
:10031800E2F7822B88BB089541110CC025B381E018
:1003280090E002C0880F991F6A95E2F780958223B2
:1003380085BB0895413029F525B381E090E002C0DE
:10034800880F991F6A95E2F7822B85BB08954111A2
:100358000CC022B381E090E002C0880F991F6A9513
:10036800E2F78095822382BB0895413051F422B38D
:1003780081E090E002C0880F991F6A95E2F7822B0E
:0403880082BB089597
:10038C001F920F920FB60F9211242F933F934F93FE
:10039C005F936F937F938F939F93AF93BF93EF93E1
:1003AC00FF938091630081112DC0809164008111B5
:1003BC0004C084E18093620022C0813059F461E072
:1003CC0081E40E940A0361E082E40E940A030E9415
:1003DC00EF0215C0823059F40E94EF0262E082E411
:1003EC000E940A0360E082E40E94060308C0833086
:1003FC0031F484E18093620081E08093640081E0B9
:10040C0080936300FF91EF91BF91AF919F918F917A
:10041C007F916F915F914F913F912F910F900FBEF4
:06042C000F901F901895CF
:100432001F920F920FB60F9211242F933F934F9357
:100442005F936F937F938F939F93AF93BF93EF933A
:10045200FF938BE082BF809162008F5F8093620086
:10046200809164008130E9F0833001F5809163006E
:10047200811108C0E0916000F091610061E081E4C7
:10048200099514C0E0916000F091610061E081E49F
:100492000995E0916000F091610061E082E40995C4
:1004A20005C0809163008111EDCFE4CFFF91EF9100
:1004B200BF91AF919F918F917F916F915F914F917A
:0E04C2003F912F910F900FBE0F901F90189535
:1004D0008234A1F018F4813431F008958334C9F0E6
:1004E000843411F108952BB381E090E002C0880FAD
:1004F000991F6A95E2F782278BBB089528B381E0A4
:1005000090E002C0880F991F6A95E2F7822788BBA6
:10051000089525B381E090E002C0880F991F6A9585
:10052000E2F7822785BB089522B381E090E002C004
:0E053000880F991F6A95E2F7822782BB089513
:10053E0060E084E40E94FE0260E081E40E94020317
:10054E0061E081E40E94020362E081E40E94020302
:10055E0060E082E40E94020361E082E40E940203F2
:10056E0062E082E40E9402030E94EA020E940E03ED
:10057E000E94D3020E941B0386E193E00E94E502D3
:02058E000895CE
:10059000EC010E9420030E941F03CE010E94210350
:0605A000CE010E941D03C4
:1005A60085B7816085BF85B7826085BF8BB780645C
:0405B6008BBF08955A
:1005BA0083B7856083BF809162008431F0F3089528
:0A05CA009093610080936000089593
:0A05D40083B783BF8BE082BF089558
:0A05DE008BE082BF109262000895C6
:0A05E8000E94DD020E941203089534
:0A05F2000E949F020E945700FDCFF7
:0805FC0040E00E94D2000895C6
:0806040041E00E94D2000895BC
:08060C0041E00E944C01089539
:0806140040E00E944C01089532
:08061C0089B7816089BF0895D0
:0806240013BE1092620008955C
:06062C000E94680208951F
:040632000C94000024
:040636007894089517
:04063A000E945500C5
:02063E0008951D
:0206400008951B
:02064200089519
:00000001FF
